:020000040800F2
:1000000000000120011B0008A1140008A914000829
:10001000B1140008B9140008C11400080000000061
:10002000000000000000000000000000C9140008EB
:10003000D714000800000000E5140008F3140008BD
:10004000511B0008511B0008511B0008511B0008E0
:10005000511B0008511B0008511B0008511B0008D0
:10006000511B0008511B0008511B0008511B0008C0
:10007000511B0008511B0008511B0008511B0008B0
:10008000511B0008511B0008511B0008511B0008A0
:10009000511B0008511B0008511B0008511B000890
:1000A000511B0008511B0008511B0008511B000880
:1000B000511B00080000000000000000511B000858
:1000C000511B0008511B0008511B0008511B000860
:1000D000511B000801150008511B000815150008E8
:1000E000511B0008511B0008000000000000000028
:1000F0000000000000000000000000000000000000
:1001000000000000511B000800000000511B000807
:10011000000000000000000029150008511B000825
:10012000511B0008511B0008511B0008511B0008FF
:10013000511B00080000000000000000000000004B
:10014000511B0008511B0008511B00080000000053
:10015000511B0008511B0008511B0008511B0008CF
:10016000511B0008511B0008511B00080000000033
:10017000511B0008511B0008000000000000000097
:0C018000511B0008511B0008511B000817
:1001900010B5054C237833B9044B13B10448AFF3C1
:1001A00000800123237010BDD80100200000000052
:1001B00064A1000808B5034B1BB103490348AFF322
:1001C000008008BD00000000DC01002064A10008E0
:1001D00001F0FF01102A2BDB10F0070F08D010F8F8
:1001E000013B013A8B422DD010F0070F42B3F6D1FC
:1001F000F0B441EA012141EA014122F007047FF015
:1002000000070023F0E80256083C85EA010586EA6B
:10021000010685FA47F5A3FA87F586FA47F6A5FAA7
:1002200087F68EB9EED1F0BC01F0FF0102F00702B3
:1002300032B110F8013B013A83EA010313B1F8D15E
:100240000020704701387047002D06BF354603383F
:10025000073815F0010F07D1013015F4807F02BF78
:10026000013015F4C03F0130F0BC0138704700BFC9
:10027000034613F8012B002AFBD1181A01387047E6
:1002800081F0004102E000BF83F0004330B54FEA47
:1002900041044FEA430594EA050F08BF90EA020FB4
:1002A0001FBF54EA000C55EA020C7FEA645C7FEA47
:1002B000655C00F0E2804FEA5454D4EB5555B8BF6A
:1002C0006D420CDD2C4480EA020281EA030382EADB
:1002D000000083EA010180EA020281EA0303362D6D
:1002E00088BF30BD11F0004F4FEA01314FF4801C40
:1002F0004CEA113102D0404261EB410113F0004F52
:100300004FEA03334CEA133302D0524263EB430308
:1003100094EA050F00F0A780A4F10104D5F1200EA6
:100320000DDB02FA0EFC22FA05F2801841F1000101
:1003300003FA0EF2801843FA05F359410EE0A5F1D5
:1003400020050EF1200E012A03FA0EFC28BF4CF006
:10035000020C43FA05F3C01851EBE37101F00045BC
:1003600007D54FF0000EDCF1000C7EEB00006EEBC9
:100370000101B1F5801F1BD3B1F5001F0CD3490853
:100380005FEA30004FEA3C0C04F101044FEA4452AA
:1003900012F5800F80F09A80BCF1004F08BF5FEA31
:1003A000500C50F1000041EB045141EA050130BD11
:1003B0005FEA4C0C404141EB0101013C28BFB1F523
:1003C000801FE9D291F0000F04BF01460020B1FA6E
:1003D00081F308BF2033A3F10B03B3F120020CDA41
:1003E0000C3208DD02F1140CC2F10C0201FA0CF01F
:1003F00021FA02F10CE002F11402D8BFC2F1200C84
:1004000001FA02F120FA0CFCDCBF41EA0C01904039
:10041000E41AA2BF01EB0451294330BD6FEA040482
:100420001F3C1CDA0C340EDC04F11404C4F120026D
:1004300020FA04F001FA02F340EA030021FA04F37F
:1004400045EA030130BDC4F10C04C4F1200220FAD6
:1004500002F001FA04F340EA0300294630BD21FA14
:1004600004F0294630BD94F0000F83F4801306BFDA
:1004700081F480110134013D4EE77FEA645C18BFCE
:100480007FEA655C29D094EA050F08BF90EA020F65
:1004900005D054EA000C04BF1946104630BD91EA5D
:1004A000030F1EBF0021002030BD5FEA545C05D160
:1004B0004000494128BF41F0004130BD14F580049F
:1004C0003CBF01F5801130BD01F0004545F0FE4113
:1004D00041F470014FF0000030BD7FEA645C1ABF48
:1004E000194610467FEA655C1CBF0B46024650EA7F
:1004F000013406BF52EA033591EA030F41F40021AB
:1005000030BD00BF90F0000F04BF0021704730B530
:100510004FF4806404F132044FF000054FF0000105
:1005200050E700BF90F0000F04BF0021704730B5C6
:100530004FF4806404F1320410F0004548BF40429B
:100540004FF000013EE700BF42004FEAE2014FEAF0
:1005500031014FEA02701FBF12F07F4393F07F4FCB
:1005600081F06051704732F07F4208BF704793F0CE
:100570007F4F04BF41F40021704730B54FF46074E1
:1005800001F0004521F000411CE700BF50EA0102E4
:1005900008BF704730B54FF000050AE050EA01028D
:1005A00008BF704730B511F0004502D5404261EBFD
:1005B00041014FF4806404F132045FEA915C3FF43E
:1005C000D8AE4FF003025FEADC0C18BF03325FEADB
:1005D000DC0C18BF033202EBDC02C2F1200300FA8C
:1005E00003FC20FA02F001FA03FE40EA0E0021FAB1
:1005F00002F11444BDE600BF70B54FF0FF0C4CF49F
:10060000E06C1CEA11541DBF1CEA135594EA0C0F50
:1006100095EA0C0F00F0DEF82C4481EA030621EA8B
:100620004C5123EA4C5350EA013518BF52EA0335C6
:1006300041F4801143F4801338D0A0FB02CE4FF078
:100640000005E1FB02E506F00042E0FB03E54FF0A8
:100650000006E1FB03569CF0000F18BF4EF0010EA0
:10066000A4F1FF04B6F5007F64F5407404D25FEA9C
:100670004E0E6D4146EB060642EAC62141EA55514F
:100680004FEAC52040EA5E504FEACE2EB4F1FD0C91
:1006900088BFBCF5E06F1ED8BEF1004F08BF5FEA0F
:1006A000500E50F1000041EB045170BD06F00046C1
:1006B00046EA010140EA020081EA0301B4EB5C046E
:1006C000C2BFD4EB0C0541EA045170BD41F4801166
:1006D0004FF0000E013C00F3AB8014F1360FDEBF8B
:1006E000002001F0004170BDC4F10004203C35DA67
:1006F0000C341BDC04F11404C4F1200500FA05F3EA
:1007000020FA04F001FA05F240EA020001F000428A
:1007100021F0004110EBD37021FA04F642EB060100
:100720005EEA430E08BF20EAD37070BDC4F10C042A
:10073000C4F1200500FA04F320FA05F001FA04F2EE
:1007400040EA020001F0004110EBD37041F10001DA
:100750005EEA430E08BF20EAD37070BDC4F12005E5
:1007600000FA05F24EEA020E20FA04F301FA05F24D
:1007700043EA020321FA04F001F0004121FA04F2F5
:1007800020EA020000EBD3705EEA430E08BF20EAC5
:10079000D37070BD94F0000F0FD101F000464000FF
:1007A00041EB010111F4801F08BF013CF7D041EA81
:1007B000060195F0000F18BF704703F00046520085
:1007C00043EB030313F4801F08BF013DF7D043EA56
:1007D0000603704794EA0C0F0CEA135518BF95EA0C
:1007E0000C0F0CD050EA410618BF52EA4306D1D193
:1007F00081EA030101F000414FF0000070BD50EAB2
:10080000410606BF1046194652EA430619D094EA3B
:100810000C0F02D150EA013613D195EA0C0F05D125
:1008200052EA03361CBF104619460AD181EA030179
:1008300001F0004141F0FE4141F470014FF0000031
:1008400070BD41F0FE4141F4780170BD70B54FF0CC
:10085000FF0C4CF4E06C1CEA11541DBF1CEA13554C
:1008600094EA0C0F95EA0C0F00F0A7F8A4EB05042E
:1008700081EA030E52EA03354FEA013100F0888025
:100880004FEA03334FF0805545EA131343EA1263EE
:100890004FEA022245EA111545EA10654FEA0026A3
:1008A0000EF000419D4208BF964244F1FD0404F55C
:1008B000407402D25B084FEA3202B61A65EB0305B8
:1008C0005B084FEA32024FF480104FF4002CB6EB75
:1008D000020E75EB030E22BFB61A754640EA0C00F5
:1008E0005B084FEA3202B6EB020E75EB030E22BF35
:1008F000B61A754640EA5C005B084FEA3202B6EB76
:10090000020E75EB030E22BFB61A754640EA9C0034
:100910005B084FEA3202B6EB020E75EB030E22BF04
:10092000B61A754640EADC0055EA060E18D04FEAC2
:10093000051545EA16754FEA06164FEAC30343EA62
:1009400052734FEAC2025FEA1C1CC0D111F4801F2F
:100950000BD141EA00014FF000004FF0004CB6E728
:1009600011F4801F04BF01430020B4F1FD0C88BFC7
:10097000BCF5E06F3FF6AFAEB5EB030C04BFB6EBD2
:10098000020C5FEA500C50F1000041EB045170BDC5
:100990000EF0004E4EEA113114EB5C04C2BFD4EBF2
:1009A0000C0541EA045170BD41F480114FF0000E76
:1009B000013C90E645EA060E8DE60CEA135594EAF2
:1009C0000C0F08BF95EA0C0F3FF43BAF94EA0C0FF5
:1009D0000AD150EA01347FF434AF95EA0C0F7FF46A
:1009E00025AF104619462CE795EA0C0F06D152EABE
:1009F00003353FF4FDAE1046194622E750EA4106A2
:100A000018BF52EA43067FF4C5AE50EA41047FF4B2
:100A10000DAF52EA43057FF4EBAE12E74FF0FF3C17
:100A200006E000BF4FF0010C02E000BF4FF0010CE8
:100A30004DF804CD4FEA410C7FEA6C5C4FEA430C61
:100A400018BF7FEA6C5C1BD001B050EA410C0CBFB0
:100A500052EA430C91EA030F02BF90EA020F002012
:100A6000704710F1000F91EA030F58BF994208BF79
:100A700090422CBFD8176FEAE37040F00100704736
:100A80004FEA410C7FEA6C5C02D150EA013C07D18D
:100A90004FEA430C7FEA6C5CD6D152EA033CD3D0D8
:100AA0005DF8040B704700BF8446104662468C46D2
:100AB0001946634600E000BF01B5FFF7B7FF002805
:100AC00048BF10F1000F01BD4DF808EDFFF7F4FF2E
:100AD0000CBF012000205DF808FB00BF4DF808EDB9
:100AE000FFF7EAFF34BF012000205DF808FB00BFDC
:100AF0004DF808EDFFF7E0FF94BF012000205DF8FE
:100B000008FB00BF4DF808EDFFF7CEFF94BF0120B2
:100B100000205DF808FB00BF4DF808EDFFF7C4FFAB
:100B200034BF012000205DF808FB00BF4FEA410CF4
:100B30007FEA6C5C02D150EA013C0AD14FEA430CD7
:100B40007FEA6C5C02D152EA033C02D14FF0000014
:100B500070474FF0010070474FEA410212F5001252
:100B600015D211D56FF47873B3EB625212D94FEAF4
:100B7000C12343F0004343EA505311F0004F23FADE
:100B800002F018BF404270474FF00000704750EA33
:100B9000013005D111F0004008BF6FF000407047F0
:100BA0004FF00000704700BF4A0011D212F500124A
:100BB00011D20DD56FF47873B3EB62520ED44FEAB5
:100BC000C12343F0004343EA505323FA02F0704735
:100BD0004FF00000704750EA013002D14FF0FF3073
:100BE00070474FF0000070474FEA4102B2F1E04316
:100BF00024BFB3F5001CDCF1FE5C0DD901F0004C04
:100C00004FEAC0024CEA5070B2F1004F40EB830053
:100C100008BF20F00100704711F0804F21D113F17F
:100C20003872BCBF01F00040704741F480114FEAB8
:100C30005252C2F11802C2F1200C10FA0CF320FA41
:100C400002F018BF40F001004FEAC1234FEAD3235E
:100C500003FA0CFC40EA0C0023FA02F34FEA4303C8
:100C6000CCE77FEA625307D150EA01331EBF4FF051
:100C7000FE4040F44000704701F0004040F0FE406C
:100C800040F40000704700BF53B94AB9002908BFBB
:100C900000281CBF4FF0FF314FF0FF3000F0A0B92B
:100CA000ADF1080C6DE904CE00F03CF8DDF804E08D
:100CB000DDE9022304B0704738B500220023044662
:100CC0000D46FFF70BFF28B920462946BDE83840FE
:100CD00000F00AB8204605F1004100F005F8404256
:100CE00061EB410138BD00BFD0B50C4B0022064678
:100CF0000F46FFF781FCFFF757FF0446FFF702FCA2
:100D0000074B0022FFF778FC02460B463046394677
:100D1000FFF7BAFAFFF748FF2146D0BD0000F03DCB
:100D20000000F0412DE9F047089D0C46002B4ED104
:100D300094468C458646B2FA82F262D94AB1C2F133
:100D40002003914020FA03F30CFA02FC194300FA45
:100D500002FE4FEA1C471FFA8CF6B1FBF7F44FEA8C
:100D60001E4307FB141143EA014304FB06F19942B9
:100D70000AD91CEB030304F1FF3080F01281994281
:100D800040F20F81023C6344591A1FFA8EF3B1FB03
:100D9000F7F007FB101143EA014300FB06F69E4201
:100DA0000AD91CEB030300F1FF3180F0FC809E4266
:100DB00040F2F980634402389B1B40EA0440002162
:100DC0001DB1D3400022C5E90032BDE8F0878B4257
:100DD00005D90DB1C5E9000100210846F5E7B3FAD0
:100DE00083F1002946D1A34202D39042C0F0F080A3
:100DF000861A64EB03030120002DE6D0C5E90063E9
:100E0000E3E7002A40F09080A1EB0C044FEA1C4875
:100E10001FFA8CF70121B4FBF8F64FEA1E4308FBDA
:100E2000164443EA044307FB06F0984208D91CEB3A
:100E3000030306F1FF3402D2984200F2CD80264629
:100E40001C1A1FFA8EF3B4FBF8F008FB104443EAB7
:100E5000044300FB07F79F4208D91CEB030300F192
:100E6000FF3402D29F4200F2B0802046DB1B40EAF2
:100E70000640A5E7C1F120068B4022FA06F71F4382
:100E800020FA06FC04FA01F343EA0C03F44000FAEA
:100E900001F8380C4FEA1349B4FBF0FE1FFA87FC47
:100EA00000FB1E4449EA04440EFB0CF9A14502FA7A
:100EB00001F20AD93C190EF1FF3A80F08480A14575
:100EC00040F28180AEF1020E3C44A4EB09041FFA0B
:100ED00083F9B4FBF0F300FB134449EA044403FB39
:100EE0000CFCA44507D93C1903F1FF3067D2A44597
:100EF00065D9023B3C4443EA0E40A0FB0293A4EBBD
:100F00000C049C42CE469C4651D34ED055B1B8EB12
:100F10000E0364EB0C0404FA06F6CB401E43CC40EF
:100F2000C5E90064002150E7C2F1200320FA03F173
:100F30000CFA02FC24FA03F394400C434FEA1C48D9
:100F400000FA02FE1FFA8CF7B3FBF8F008FB103131
:100F5000230C43EA014300FB07F1994208D91CEB3B
:100F6000030300F1FF362CD299422AD90238634498
:100F70005B1AA4B2B3FBF8F108FB113344EA034453
:100F800001FB07F3A34208D91CEB040401F1FF366F
:100F900013D2A34211D902396444E41A41EA004150
:100FA00039E70446F0E6084606E7C845AED2B9EB95
:100FB000020E63EB070C0138A8E73146EDE7034664
:100FC00099E73046D4E7D6467FE7634402384DE7D9
:100FD0000646234608460FE7023E634430E700BF5B
:100FE000704700BF80B58AB000AF07F1140300223C
:100FF0001A605A609A60DA601A61324BDB6C314ACF
:1010000043F08003D3642F4BDB6C03F080033B6120
:101010003B692C4BDB6C2B4A43F00403D364294B14
:10102000DB6C03F00403FB60FB68264BDB6C254A9A
:1010300043F00103D364234BDB6C03F00103BB607B
:10104000BB68204BDB6C1F4A43F00203D3641D4B8B
:10105000DB6C03F002037B607B6800224FF40071BD
:101060004FF0904001F030F980237B610023BB6199
:101070000123FB6107F114031946134800F092FFA6
:101080004FF400737B610123BB610023FB610023EC
:101090003B6207F1140319464FF0904000F082FFC5
:1010A0004FF400637B610023BB610023FB6107F108
:1010B000140319464FF0904000F074FF00BF28372A
:1010C000BD4680BD001002400008004880B483B0D7
:1010D00000AF786000BF0C37BD465DF8047B7047F9
:1010E00080B582B000AF78607B681B680A4A934283
:1010F0000ED10A4B1B680A4AD2ED007AB0EE670A9D
:10110000184600F05BFC074B1B680133054A13606F
:1011100000BF0837BD4680BD001000400000002021
:10112000080200200C020020B0B584B000AF0346D6
:10113000FB80FB8840F2C97202FB03F3002B02DA4A
:1011400003F5FF437F33DB1307EE903AF8EEE77ABF
:101150009FED2B7A77EEC77AC7ED037AF868FFF731
:10116000F3F921A3D3E90023FFF746FA02460B4621
:1011700014461D46F868FFF7E7F902460B4620467D
:101180002946FFF739FA02460B4614461D46F86811
:10119000FFF7DAF916A3D3E90023FFF72DFA024689
:1011A0000B4620462946FFF771F802460B461046CB
:1011B000194611A3D3E90023FFF766F802460B4650
:1011C00010461946FFF710FD0346BB60B868FFF7ED
:1011D000BBF902460B4643EC172BB0EE470AF0EE84
:1011E000670A1037BD46B0BD84B4AD037336053F02
:1011F000BB0F406A1327DE3FBC7241A6CAB56E40E2
:10120000CDCC4C3E80B582B002AF00F0A2FC00F025
:1012100053F8FFF7E7FE00F0C5FA00F09BF800F086
:10122000F1FA00F063FA1E4803F000F8322301934C
:10123000022300934FF400734FF0904219491A486B
:1012400004F055FE04F076FC184B1B68022BF9D114
:10125000164B00221A6004F0BBFC0346002B09D099
:1012600000F0D4FB00F0ECFBF0EE407A104BC3ED45
:10127000007AE7E70C4804F00BFE03461A460D4BD4
:101280001A800C4B1B881846FFF74EFF53EC102BAF
:1012900010461946FFF7A8FC0346054A1360D1E73C
:1012A0007802002010020020F40100200C0200202F
:1012B000080200200402002080B596B000AF07F1BC
:1012C000140344220021184606F0F3F93B4600229D
:1012D0001A605A609A60DA601A614FF4007001F087
:1012E00019F80346002B01D000F02DF810237B6184
:1012F0000123FB6200233B6390237B630023FB639A
:1013000007F11403184601F05BF80346002B01D0E7
:1013100000F019F80F233B6000237B600023BB60C3
:101320000023FB604FF480633B613B46012118467C
:1013300001F05AFC0346002B01D000F004F800BF76
:101340005837BD4680BD80B400AF72B600BF00BF45
:10135000FDE7000080B500AF1B4B1C4A1A601A4B1A
:101360004FF482725A60184B00229A60164B4FF469
:10137000E062DA60144B00221A61134B01225A61B9
:10138000114B4FF400729A610F4B2822DA610E4B19
:1013900000221A620C4B00225A620B4B00229A6206
:1013A000094B0722DA62084B00221A63064B00221F
:1013B0005A63054802F046F90346002B01D0FFF7B7
:1013C000C2FF00BF80BD00BF10020020003C0040F3
:1013D00080B58AB000AF786007F1140300221A606C
:1013E0005A609A60DA601A617B681B68174A9342F8
:1013F00028D1174B9B6D164A43F400439365144B59
:101400009B6D03F400433B613B69114BDB6C104A5D
:1014100043F00403D3640E4BDB6C03F00403FB6066
:10142000FB684FF4E0537B610223BB610023FB6147
:1014300003233B6206237B6207F114031946054828
:1014400000F0B0FD00BF2837BD4680BD003C004025
:10145000001002400008004880B483B000AF0F4B7A
:101460001B6E0E4A43F0010313660C4B1B6E03F018
:1014700001037B607B68094B9B6D084A43F08053F6
:101480009365064B9B6D03F080533B603B6800BF48
:101490000C37BD465DF8047B704700BF001002406A
:1014A00080B400AF00BFFDE780B400AF00BFFDE730
:1014B00080B400AF00BFFDE780B400AF00BFFDE720
:1014C00080B400AF00BFFDE780B400AF00BFBD46F1
:1014D0005DF8047B704780B400AF00BFBD465DF887
:1014E000047B704780B400AF00BFBD465DF8047B4D
:1014F000704780B500AF00F081FB00BF80BD0000E9
:1015000080B500AF024803F07FFA00BF80BD00BF86
:101510000403002080B500AF024803F075FA00BF55
:1015200080BD00BF8C03002080B500AF024802F0F0
:10153000D1FE00BF80BD00BF7802002080B400AFA4
:1015400001231846BD465DF8047B704780B582B024
:1015500000AF7860396006F01DF9034616221A6064
:101560004FF0FF3318460837BD4680BD80B582B0C6
:1015700000AF78604FF0FF317868FFF7E7FF00BFFA
:10158000FDE780B586B000AFF860B9607A600023EF
:101590007B610AE0AFF300800146BB685A1CBA6069
:1015A000CAB21A707B6901337B617A697B689A429F
:1015B000F0DB7B6818461837BD4680BD80B586B025
:1015C00000AFF860B9607A6000237B6109E0BB6816
:1015D0005A1CBA601B781846AFF300807B69013350
:1015E0007B617A697B689A42F1DB7B681846183721
:1015F000BD4680BD80B483B000AF78604FF0FF334C
:1016000018460C37BD465DF8047B704780B483B044
:1016100000AF786039603B684FF400525A60002395
:1016200018460C37BD465DF8047B704780B483B024
:1016300000AF7860012318460C37BD465DF8047B87
:10164000704780B485B000AFF860B9607A6000235D
:1016500018461437BD465DF8047B704780B586B0E8
:1016600000AF7860144A154BD31A7B617B693B61EC
:10167000134B1B68002B02D1114B124A1A60104BFE
:101680001A687B6813443A699A4207D206F082F8D6
:1016900003460C221A604FF0FF3309E0084B1B6829
:1016A000FB60074B1A687B681344054A1360FB68AC
:1016B00018461837BD4680BD000001200004000018
:1016C000740200207805002080B400AF064BD3F8E8
:1016D0008830054A43F47003C2F8883000BFBD4625
:1016E0005DF8047B704700BF00ED00E080B584B07A
:1016F00000AF3B1D00221A605A609A60144B154AD5
:101700001A60134BEF225A60114B00229A60104B63
:1017100046F2A812DA600E4B00229A610C4802F0E1
:101720002DFD0346002B01D0FFF70DFE00237B604B
:101730000023FB603B1D1946054802F06BFF034682
:10174000002B01D0FFF7FFFD00BF1037BD4680BD65
:10175000780200200010004080B584B000AF7860AF
:101760007B681B680D4A934213D10D4B9B6D0C4A4D
:1017700043F0100393650A4B9B6D03F01003FB606D
:10178000FB6800220021362000F057FB362000F0D5
:1017900070FB00BF1037BD4680BD00BF0010004089
:1017A0000010024080B500AF144B154A1A60134B6D
:1017B0004FF4E1325A60114B00229A600F4B002225
:1017C000DA600E4B00221A610C4B0C225A610B4B53
:1017D00000229A61094B0022DA61084B00221A624A
:1017E000064B00225A62054802F098FF0346002B80
:1017F00001D0FFF7A8FD00BF80BD00BF040300209B
:101800000038014080B500AF144B154A1A60134BE5
:101810004FF496525A60114B00229A600F4B0022EF
:10182000DA600E4B00221A610C4B0C225A610B4BF2
:1018300000229A61094B0022DA61084B00221A62E9
:10184000064B00225A62054802F068FF0346002B4F
:1018500001D0FFF778FD00BF80BD00BF8C030020E2
:101860000048004080B5A2B000AF786007F1740373
:1018700000221A605A609A60DA601A6107F1180350
:101880005C220021184605F014FF7B681B68464A5D
:10189000934240D10123BB610023BB6307F11803CE
:1018A000184601F0C5FB0346002B01D0FFF74BFDA6
:1018B0003E4B1B6E3D4A43F4804313663B4B1B6E0D
:1018C00003F480437B617B69384BDB6C374A43F020
:1018D0000203D364354BDB6C03F002033B613B69CD
:1018E000C0237B670223BB670023FB670323C7F882
:1018F00080300723C7F8843007F1740319462C4859
:1019000000F050FB00220021252000F096FA25204F
:1019100000F0AFFA44E07B681B68264A93423FD14F
:101920000423BB6100233B6407F11803184601F050
:101930007FFB0346002B01D0FFF705FD1B4B9B6D82
:101940001A4A43F480239365184B9B6D03F480235C
:10195000FB60FB68154BDB6C144A43F00403D36453
:10196000124BDB6C03F00403BB60BB6830237B6766
:101970000223BB670023FB670323C7F880300723DC
:10198000C7F8843007F1740319460B4800F00AFBCE
:1019900000220021272000F050FA272000F069FAE9
:1019A00000BF8837BD4680BD0038014000100240AE
:1019B00000040048004800400008004880B584B09A
:1019C00002AF786087ED000A3868FEF7BDFD024679
:1019D0000B46CDE900237B68094A2821094805F018
:1019E000F1FD0848FEF744FC03469BB21A46054940
:1019F000054802F0ABFF00BF0837BD4680BD00BF01
:101A000080A10008C40200200403002080B582B039
:101A100000AF094A3B1D1268114619800233120CAF
:101A20001A703B1D03221946044802F08FFF00BFC5
:101A30000837BD4680BD00BF90A100088C03002080
:101A400080B58AB000AF00237B6107F11803002244
:101A50001A605A609A6007F1140164230F22234828
:101A600002F0AAFE00237B6007F1080300221A603F
:101A70005A609A6007F11403381D1D4A102105F0C1
:101A8000A1FD00237B623B1D2021184605F019FEB5
:101A900078627B6A002B09D07B6A01337B627B6AA8
:101AA000134A0A21134805F08DFD04E0124A0A2169
:101AB000104805F087FD0F4804F057FA53EC102B3F
:101AC00010461946FFF790F803460C4A13600A22A5
:101AD0000021084805F0EDFD084B1B6807EE903A21
:101AE000B0EE670A2837BD4680BD00BF8C030020DA
:101AF00094A100081404002098A1000820040020EC
:101B0000DFF834D0FFF7E0FD0C480D490D4A002303
:101B100002E0D458C4500433C4188C42F9D30A4AA2
:101B20000A4C002301E013600432A242FBD305F00B
:101B300037FEFFF767FBFEE70000012000000020F2
:101B4000D801002020A60008D80100207805002038
:101B5000FEE780B582B000AF0023FB71032000F0E8
:101B600061F90F2000F00EF80346002B02D001238C
:101B7000FB7101E0FFF770FCFB7918460837BD46A2
:101B800080BD000080B584B000AF78600023FB7397
:101B9000174B1B78002B23D0164B1A68144B1B785D
:101BA00019464FF47A73B3FBF1F3B2FBF3F3184623
:101BB00000F06DF90346002B0FD17B680F2B09D87D
:101BC000002279684FF0FF3000F037F90A4A7B684D
:101BD000136007E00123FB7304E00123FB7301E0C2
:101BE0000123FB73FB7B18461037BD4680BD00BF49
:101BF0000C000020040000200800002080B400AF8A
:101C0000064B1B781A46064B1B681344044A1360A4
:101C100000BFBD465DF8047B704700BF0C0000208C
:101C20002404002080B400AF034B1B681846BD4657
:101C30005DF8047B704700BF2404002080B584B0A9
:101C400000AF7860FFF7EEFFB8607B68FB60FB6871
:101C5000B3F1FF3F05D00A4B1B781A46FB681344CB
:101C6000FB6000BFFFF7DEFF0246BB68D31AFA68CD
:101C70009A42F7D800BF00BF1037BD4680BD00BFF5
:101C80000C00002080B485B000AF78607B6803F062
:101C90000703FB600C4BDB68BB60BA684FF6FF03C1
:101CA0001340BB60FB681A02BB68134343F0BF6379
:101CB00043F40033BB60044ABB68D36000BF1437F1
:101CC000BD465DF8047B704700ED00E080B400AFD6
:101CD000044BDB681B0A03F007031846BD465DF89A
:101CE000047B704700ED00E080B483B000AF034692
:101CF000FB7197F90730002B0BDBFB7903F01F0218
:101D0000074997F907305B09012000FA02F241F810
:101D1000232000BF0C37BD465DF8047B704700BF31
:101D200000E100E080B483B000AF03463960FB718E
:101D300097F90730002B0ADB3B68DAB20C4997F9B8
:101D400007301201D2B20B4483F800230AE03B684B
:101D5000DAB20849FB7903F00F03043B1201D2B257
:101D60000B441A7600BF0C37BD465DF8047B704704
:101D700000E100E000ED00E080B489B000AFF86061
:101D8000B9607A60FB6803F00703FB61FB69C3F18C
:101D90000703042B28BF0423BB61FB690433062B14
:101DA00002D9FB69033B00E000237B614FF0FF3267
:101DB000BB6902FA03F3DA43BB681A407B699A40B5
:101DC0004FF0FF317B6901FA03F3D9437B680B4085
:101DD000134318462437BD465DF8047B7047000066
:101DE00080B582B000AF78607B68013BB3F1807F43
:101DF00001D301230FE00A4A7B68013B53600F21A6
:101E00004FF0FF30FFF78EFF054B00229A60044B26
:101E100007221A60002318460837BD4680BD00BF60
:101E200010E000E080B582B000AF78607868FFF71E
:101E300029FF00BF0837BD4680BD80B586B000AF22
:101E40000346B9607A60FB7300237B61FFF73EFFB6
:101E500078617A68B9687869FFF78EFF024697F96A
:101E60000F3011461846FFF75DFF00BF1837BD461B
:101E700080BD80B582B000AF0346FB7197F9073093
:101E80001846FFF731FF00BF0837BD4680BD80B55B
:101E900082B000AF78607868FFF7A2FF034618466B
:101EA0000837BD4680BD80B485B000AF78600023A0
:101EB000FB737B6893F82530DBB2022B08D07B687C
:101EC0000422DA637B68002283F82420012322E0C5
:101ED0007B681B681A687B681B6822F00E021A6018
:101EE0007B681B681A687B681B6822F001021A6015
:101EF0007B685B6C03F01C027B681B6C012101FAA0
:101F000002F25A607B68012283F825207B68002258
:101F100083F82420FB7B18461437BD465DF8047B0C
:101F2000704780B584B000AF78600023FB737B6896
:101F300093F82530DBB2022B05D07B680422DA63EC
:101F40000123FB7329E07B681B681A687B681B68A8
:101F500022F00E021A607B681B681A687B681B6897
:101F600022F001021A607B685B6C03F01C027B6844
:101F70001B6C012101FA02F25A607B68012283F88E
:101F800025207B68002283F824207B689B6B002B34
:101F900003D07B689B6B78689847FB7B18461037AB
:101FA000BD4680BD80B487B000AF78603960002343
:101FB0007B6154E13B681A6801217B6901FA03F3F4
:101FC0001340FB60FB68002B00F046813B685B68B8
:101FD00003F00303012B05D03B685B6803F00303A8
:101FE000022B30D17B689B683B617B695B000322DD
:101FF00002FA03F3DB433A6913403B613B68DA685A
:102000007B695B0002FA03F33A6913433B617B6827
:102010003A699A607B685B683B6101227B6902FADE
:1020200003F3DB433A6913403B613B685B681B0980
:1020300003F001027B6902FA03F33A6913433B613F
:102040007B683A695A603B685B6803F00303032BC3
:1020500017D07B68DB683B617B695B00032202FA77
:1020600003F3DB433A6913403B613B689A687B6941
:102070005B0002FA03F33A6913433B617B683A69F8
:10208000DA603B685B6803F00303022B23D17B69B2
:10209000DA087B68083253F822303B617B6903F031
:1020A00007039B000F2202FA03F3DB433A69134054
:1020B0003B613B681A697B6903F007039B0002FAE6
:1020C00003F33A6913433B617B69DA087B680832A2
:1020D000396943F822107B681B683B617B695B00B0
:1020E000032202FA03F3DB433A6913403B613B6886
:1020F0005B6803F003027B695B0002FA03F33A6951
:1021000013433B617B683A691A603B685B6803F480
:102110004033002B00F0A080584B1B6E574A43F011
:1021200001031366554B1B6E03F00103BB60BB68D4
:10213000534A7B699B08023352F823303B617B6929
:1021400003F003039B000F2202FA03F3DB433A6917
:1021500013403B617B68B3F1904F19D07B68494ACB
:10216000934213D07B68484A93420DD07B68474A1C
:10217000934207D07B68464A934201D1042308E08A
:10218000072306E0032304E0022302E0012300E02A
:1021900000237A6902F00302920093403A691343E4
:1021A0003B6137497B699B0802333A6941F8232038
:1021B000384B9B683B61FB68DB433A6913403B61EA
:1021C0003B685B6803F48013002B03D03A69FB681B
:1021D00013433B612F4A3B6993602E4BDB683B61A5
:1021E000FB68DB433A6913403B613B685B6803F47F
:1021F0000013002B03D03A69FB6813433B61254A67
:102200003B69D360234B5B683B61FB68DB433A6906
:1022100013403B613B685B6803F40033002B03D041
:102220003A69FB6813433B611A4A3B695360194B97
:102230001B683B61FB68DB433A6913403B613B68C9
:102240005B6803F48033002B03D03A69FB681343C7
:102250003B61104A3B6913607B6901337B613B68DA
:102260001A687B6922FA03F3002B7FF4A3AE00BF48
:1022700000BF1C37BD465DF8047B7047001002406C
:10228000000001400004004800080048000C00481D
:10229000001000480004014080B485B000AF7860B1
:1022A0000B467B807B681A697B881340002B02D029
:1022B0000123FB7301E00023FB73FB7B18461437FB
:1022C000BD465DF8047B704780B483B000AF786092
:1022D0000B467B8013467B707B78002B03D07A887B
:1022E0007B689A6102E07A887B689A6200BF0C374B
:1022F000BD465DF8047B704780B400AF044B1B689B
:1023000003F4C0631846BD465DF8047B704700BF08
:102310000070004080B485B000AF78607B68B3F592
:10232000007F30D1234B1B6803F4C063B3F5007FFB
:1023300038D0204B1B6823F4C0631E4A43F400735B
:1023400013601D4B1B68322202FB03F31B4AA2FBE6
:1023500003239B0C0133FB6002E0FB68013BFB6045
:10236000144B5B6903F48063B3F5806F02D1FB68A3
:10237000002BF2D10F4B5B6903F48063B3F5806FE0
:1023800010D103230FE00B4B1B6803F4C063B3F5BC
:10239000806F07D0074B1B6823F4C063054A43F4E2
:1023A00080631360002318461437BD465DF8047B34
:1023B000704700BF007000400400002083DE1B4314
:1023C00080B588B000AF78607B68002B02D1012314
:1023D00000F002BC964B9B6803F00C03BB61944B6E
:1023E000DB6803F003037B617B681B6803F0100369
:1023F000002B00F0E480BB69002B07D0BB690C2BDD
:1024000040F08B807B69012B40F08780884B1B68F4
:1024100003F00203002B05D07B689B69002B01D1E0
:102420000123D9E37B681A6A814B1B6803F0080318
:10243000002B04D07E4B1B6803F0F00305E07C4BBF
:10244000D3F894301B0903F0F003934223D27B6846
:102450001B6A184600F08CFD0346002B01D00123B7
:10246000BAE3734B1B68724A43F008031360704B66
:102470001B6823F0F0027B681B6A6D4913430B60F5
:102480006B4B5B6823F47F427B68DB691B02684906
:1024900013434B6025E0664B1B68654A43F0080315
:1024A0001360634B1B6823F0F0027B681B6A604972
:1024B00013430B605E4B5B6823F47F427B68DB69F0
:1024C0001B025B4913434B60BB69002B09D17B683E
:1024D0001B6A184600F04CFD0346002B01D0012377
:1024E0007AE300F081FC0246514B9B681B0903F024
:1024F0000F035049CB5C03F01F0322FA03F34E4A4B
:1025000013604E4B1B681846FFF73CFB0346FB73FA
:10251000FB7B002B52D0FB7B5EE37B689B69002B2F
:1025200032D0434B1B68424A43F001031360FFF76C
:1025300079FB386108E0FFF775FB02463B69D31A67
:10254000022B01D9032347E3394B1B6803F0020335
:10255000002BF0D0364B1B68354A43F0080313605C
:10256000334B1B6823F0F0027B681B6A304913432E
:102570000B602F4B5B6823F47F427B68DB691B0297
:102580002B4913434B601AE0294B1B68284A23F060
:1025900001031360FFF746FB386108E0FFF742FBD9
:1025A00002463B69D31A022B01D9032314E3204BC3
:1025B0001B6803F00203002BF0D100E000BF7B6832
:1025C0001B6803F00103002B73D0BB69082B05D0F7
:1025D000BB690C2B0ED17B69032B0BD1144B1B68F1
:1025E00003F40033002B63D07B685B68002B5FD162
:1025F0000123F1E27B685B68B3F5803F06D10C4BA9
:102600001B680B4A43F48033136025E07B685B68EA
:10261000B3F5A02F14D1064B1B68054A43F4802361
:102620001360034B1B68024A43F48033136013E0CA
:1026300000100240A0A100080400002008000020B3
:10264000A04B1B689F4A23F4803313609D4B1B688B
:102650009C4A23F4802313607B685B68002B13D0B3
:10266000FFF7E0FA386108E0FFF7DCFA02463B6961
:10267000D31A642B01D90323AEE2924B1B6803F4F7
:102680000033002BF0D014E0FFF7CCFA386108E0FB
:10269000FFF7C8FA02463B69D31A642B01D903231A
:1026A0009AE2884B1B6803F40033002BF0D100E062
:1026B00000BF7B681B6803F00203002B60D0BB697E
:1026C000042B05D0BB690C2B19D17B69022B16D1C9
:1026D0007C4B1B6803F48063002B05D07B68DB68B0
:1026E000002B01D1012377E2764B5B6823F0F8528F
:1026F0007B681B691B06734913434B6040E07B6892
:10270000DB68002B23D06F4B1B686E4A43F4807349
:102710001360FFF787FA386108E0FFF783FA024693
:102720003B69D31A022B01D9032355E2654B1B6881
:1027300003F48063002BF0D0624B5B6823F0F85207
:102740007B681B691B065F4913434B6018E05D4BB8
:102750001B685C4A23F480731360FFF763FA3861E7
:1027600008E0FFF75FFA02463B69D31A022B01D952
:10277000032331E2534B1B6803F48063002BF0D139
:102780007B681B6803F00803002B3CD07B685B6907
:10279000002B1CD04B4BD3F894304A4A43F0010332
:1027A000C2F89430FFF73EFA386108E0FFF73AFAD2
:1027B00002463B69D31A022B01D903230CE2414B99
:1027C000D3F8943003F00203002BEFD01BE03D4B15
:1027D000D3F894303B4A23F00103C2F89430FFF75A
:1027E00021FA386108E0FFF71DFA02463B69D31A67
:1027F000022B01D90323EFE1324BD3F8943003F0DD
:102800000203002BEFD17B681B6803F00403002B4D
:1028100000F0A6800023FB772A4B9B6D03F08053CA
:10282000002B0DD1274B9B6D264A43F080539365B7
:10283000244B9B6D03F08053BB60BB680123FB7787
:10284000214B1B6803F48073002B18D11E4B1B68AF
:102850001D4A43F480731360FFF7E4F9386108E020
:10286000FFF7E0F902463B69D31A022B01D9032393
:10287000B2E1154B1B6803F48073002BF0D07B682A
:102880009B68012B08D10F4BD3F890300D4A43F0D1
:102890000103C2F8903029E07B689B68052B15D1B5
:1028A000084BD3F89030074A43F00403C2F8903045
:1028B000044BD3F89030034A43F00103C2F8903040
:1028C00014E000BF00100240007000409A4BD3F8A3
:1028D0009030994A23F00103C2F89030964BD3F818
:1028E0009030954A23F00403C2F890307B689B68CF
:1028F000002B16D0FFF796F938610AE0FFF792F93E
:1029000002463B69D31A41F28832934201D903232C
:1029100062E1894BD3F8903003F00203002BEDD035
:1029200015E0FFF77FF938610AE0FFF77BF902460F
:102930003B69D31A41F28832934201D903234BE118
:102940007D4BD3F8903003F00203002BEDD1FB7FD9
:10295000012B05D1784B9B6D774A23F0805393650B
:102960007B681B6803F02003002B3CD07B685B6A0C
:10297000002B1CD0704BD3F898306F4A43F0010302
:10298000C2F89830FFF74EF9386108E0FFF74AF9CE
:1029900002463B69D31A022B01D903231CE1664B83
:1029A000D3F8983003F00203002BEFD01BE0624B0A
:1029B000D3F89830604A23F00103C2F89830FFF74B
:1029C00031F9386108E0FFF72DF902463B69D31A67
:1029D000022B01D90323FFE0574BD3F8983003F0C3
:1029E0000203002BEFD17B689B6A002B00F0F38081
:1029F0007B689B6A022B40F0C9804F4BDB687B6190
:102A00007B6903F003027B68DB6A9A422CD17B6905
:102A100003F070027B681B6B013B1B019A4223D1C0
:102A20007B6903F4FE427B685B6B1B029A421BD1FD
:102A30007B6903F078427B689B6BDB069A4213D17B
:102A40007B6903F4C0027B68DB6B5B08013B5B05C1
:102A50009A4209D17B6903F0C0627B681B6C5B08FA
:102A6000013B5B069A426BD0BB690C2B62D0324BA8
:102A70001B6803F08063002B01D00123ACE02E4BD8
:102A80001B682D4A23F080731360FFF7CBF8386181
:102A900008E0FFF7C7F802463B69D31A022B01D9B9
:102AA000032399E0244B1B6803F00073002BF0D143
:102AB000214BDA68214B13407A68D16A7A68126B2D
:102AC000013A120111437A68526B120211437A687B
:102AD000D26B5208013A520511437A68126C5208BF
:102AE000013A520611437A68926BD2060A431249A0
:102AF0001343CB60104B1B680F4A43F08073136085
:102B00000D4BDB680C4A43F08073D360FFF78AF803
:102B1000386108E0FFF786F802463B69D31A022BBA
:102B200001D9032358E0044B1B6803F00073002B0A
:102B3000F0D050E001234FE0001002408C809D0156
:102B4000274B1B6803F00073002B44D1244B1B68F8
:102B5000234A43F080731360214BDB68204A43F023
:102B60008073D360FFF75EF8386108E0FFF75AF82A
:102B700002463B69D31A022B01D903232CE0184BE0
:102B80001B6803F00073002BF0D024E0BB690C2B12
:102B90001FD0134B1B68124A23F080731360FFF79A
:102BA00041F8386108E0FFF73DF802463B69D31A67
:102BB000022B01D903230FE0094B1B6803F00073BC
:102BC000002BF0D1064BDA680549064B1340CB6069
:102BD00001E0012300E0002318462037BD4680BDF8
:102BE00000100240FCFFEEFE80B584B000AF7860BC
:102BF00039607B68002B01D10123E7E0754B1B682E
:102C000003F007033A689A4210D9724B1B6823F00D
:102C1000070270493B6813430B606E4B1B6803F05F
:102C200007033A689A4201D00123CFE07B681B6812
:102C300003F00203002B10D07B689A68664B9B68F8
:102C400003F0F0039A4208D9634B9B6823F0F0022B
:102C50007B689B68604913438B607B681B6803F04B
:102C60000103002B4CD07B685B68032B07D15A4BC8
:102C70001B6803F00073002B21D10123A6E07B68C1
:102C80005B68022B07D1544B1B6803F40033002B05
:102C900015D101239AE07B685B68002B07D14E4B6E
:102CA0001B6803F00203002B09D101238EE04A4B7D
:102CB0001B6803F48063002B01D1012386E0464B9F
:102CC0009B6823F003027B685B68434913438B6076
:102CD000FEF7A8FFF8600AE0FEF7A4FF0246FB68D3
:102CE000D31A41F28832934201D903236EE03A4B62
:102CF0009B6803F00C027B685B689B009A42EBD1F7
:102D00007B681B6803F00203002B10D07B689A6875
:102D1000314B9B6803F0F0039A4208D22E4B9B681C
:102D200023F0F0027B689B682B4913438B60294B8F
:102D30001B6803F007033A689A4210D2254B1B68C0
:102D400023F0070223493B6813430B60214B1B68A8
:102D500003F007033A689A4201D0012336E07B680A
:102D60001B6803F00403002B08D01B4B9B6823F463
:102D7000E0627B68DB68184913438B607B681B68E3
:102D800003F00803002B09D0134B9B6823F4605217
:102D90007B681B69DB00104913438B6000F024F84B
:102DA00002460D4B9B681B0903F00F030B49CB5CDC
:102DB00003F01F0322FA03F3094A1360094B1B684F
:102DC0001846FEF7DFFE0346FB72FB7A1846103703
:102DD000BD4680BD0020024000100240A0A10008B6
:102DE000040000200800002080B489B000AF002358
:102DF000FB610023BB613E4B9B6803F00C033B610E
:102E00003B4BDB6803F00303FB603B69002B05D001
:102E10003B690C2B21D1FB68012B1ED1344B1B6865
:102E200003F00803002B07D1314BD3F894301B0A71
:102E300003F00F03FB6105E02D4B1B681B0903F03A
:102E40000F03FB612B4AFB6952F82330FB613B699E
:102E5000002B0DD1FB69BB610AE03B69042B02D159
:102E6000254BBB6104E03B69082B01D1234BBB61BF
:102E70003B690C2B34D11E4BDB6803F00303BB60B2
:102E8000BB68022B03D0BB68032B03D005E01A4BB1
:102E90007B6105E0194B7B6102E0FB697B6100BF50
:102EA000134BDB681B0903F0070301337B60104BF6
:102EB000DB681B0A03F07F037A6903FB02F27B687D
:102EC000B2FBF3F37B610A4BDB685B0E03F0030399
:102ED00001335B003B607A693B68B2FBF3F3BB6193
:102EE000BB6918462437BD465DF8047B704700BFB8
:102EF00000100240B8A100080024F400006CDC02BD
:102F000080B400AF034B1B681846BD465DF8047BD8
:102F1000704700BF0400002080B500AFFFF7F0FF4E
:102F20000246064B9B681B0A03F007030449CB5C6F
:102F300003F01F0322FA03F3184680BD001002407D
:102F4000B0A1000880B500AFFFF7DAFF0246064BDC
:102F50009B68DB0A03F007030449CB5C03F01F0303
:102F600022FA03F3184680BD00100240B0A1000809
:102F700080B586B000AF786000233B612A4B9B6D23
:102F800003F08053002B03D0FFF7B6F9786114E00B
:102F9000254B9B6D244A43F080539365224B9B6DD8
:102FA00003F08053FB60FB68FFF7A6F978611E4BC6
:102FB0009B6D1D4A23F0805393657B69B3F5007FB9
:102FC0000BD17B68802B19D97B68A02B02D90223F7
:102FD0003B6113E001233B6110E07B68802B02D949
:102FE00003233B610AE07B68802B02D102233B6113
:102FF00004E07B68702B01D101233B610B4B1B6804
:1030000023F0070209493B6913430B60074B1B6818
:1030100003F007033A699A4201D0012300E000233C
:1030200018461837BD4680BD0010024000200240FF
:1030300080B586B000AF78600023FB740023BB74BA
:103040007B681B6803F40063002B31D07B685B6CEA
:10305000B3F5400F1AD0B3F5400F14D8002B09D0A8
:10306000B3F5000F0FD15D4BDB685C4A43F480334E
:10307000D3600CE07B6804330021184600F0F0F9BF
:103080000346FB7403E00123FB7400E000BFFB7CFC
:10309000002B0BD1514BD3F8883023F440027B68CE
:1030A0005B6C4E491343C1F8883001E0FB7CBB7474
:1030B0007B681B6803F40033002B00F09E80002324
:1030C0007B74464B9B6D03F08053002B01D1012391
:1030D00000E00023002B0DD0404B9B6D3F4A43F096
:1030E000805393653D4B9B6D03F08053BB60BB6881
:1030F00001237B743A4B1B68394A43F48073136095
:10310000FEF790FDF86009E0FEF78CFD0246FB68D3
:10311000D31A022B02D90323FB7405E0304B1B6842
:1031200003F48073002BEFD0FB7C002B5AD12B4B88
:10313000D3F8903003F440737B617B69002B1ED081
:103140007B689B6D7A699A4219D0244BD3F89030F2
:1031500023F440737B61214BD3F890301F4A43F432
:103160008033C2F890301D4BD3F890301B4A23F4C3
:103170008033C2F89030194A7B69C2F890307B697D
:1031800003F00103002B16D0FEF74CFDF8600BE0B6
:10319000FEF748FD0246FB68D31A41F2883293429B
:1031A00002D90323FB7406E00C4BD3F8903003F0F4
:1031B0000203002BECD0FB7C002B0BD1074BD3F888
:1031C000903023F440727B689B6D04491343C1F82F
:1031D000903009E0FB7CBB7406E000BF00100240A9
:1031E00000700040FB7CBB747B7C012B05D19B4BAA
:1031F0009B6D9A4A23F0805393657B681B6803F0AC
:103200000103002B0AD0954BD3F8883023F003023A
:103210007B681B6A91491343C1F888307B681B683F
:1032200003F00203002B0AD08C4BD3F8883023F034
:103230000C027B685B6A89491343C1F888307B685C
:103240001B6803F00403002B0AD0844BD3F88830AA
:1032500023F030027B689B6A80491343C1F88830B1
:103260007B681B6803F02003002B0AD07B4BD3F84C
:10327000883023F440627B68DB6A78491343C1F8E5
:1032800088307B681B6803F40073002B0AD0734BF3
:10329000D3F8883023F440227B68DB6B6F491343FB
:1032A000C1F888307B681B6803F48063002B0AD068
:1032B0006A4BD3F8883023F440127B681B6C674953
:1032C0001343C1F888307B681B6803F04003002B70
:1032D0000AD0624BD3F8883023F440527B681B6BD2
:1032E0005E491343C1F888307B681B6803F0800394
:1032F000002B0AD0594BD3F8883023F440427B6826
:103300005B6B56491343C1F888307B681B6803F434
:103310008073002B0AD0514BD3F8883023F440320D
:103320007B689B6B4D491343C1F888307B681B68F1
:1033300003F40023002B28D0484BD3F8883023F027
:1033400040627B689B6C45491343C1F888307B68B9
:103350009B6CB3F1006F06D1404BDB683F4A43F4EE
:103360008013D36011E07B689B6CB3F1806F0CD14C
:103370007B6804330121184600F072F80346FB74A1
:10338000FB7C002B01D0FB7CBB747B681B6803F4C7
:103390008023002B28D0314BD3F8883023F04062B3
:1033A0007B68DB6C2D491343C1F888307B68DB6C8C
:1033B000B3F1006F06D1294BDB68284A43F4801330
:1033C000D36011E07B68DB6CB3F1806F0CD17B685C
:1033D00004330121184600F043F80346FB74FB7CDC
:1033E000002B01D0FB7CBB747B681B6803F480431B
:1033F000002B1CD0194BD3F8883023F040527B6847
:103400001B6D16491343C1F888307B681B6DB3F1FF
:10341000805F0CD17B6804330221184600F020F84D
:103420000346FB74FB7C002B01D0FB7CBB747B68E8
:103430001B6803F40043002B0AD0084BD3F88830F4
:1034400023F080427B685B6D04491343C1F88830E8
:10345000BB7C18461837BD4680BD00BF0010024037
:1034600080B584B000AF786039600023FB73744B83
:10347000DB6803F00303002B18D0714BDB6803F00B
:1034800003027B681B689A420DD17B681B68002B86
:1034900009D06B4BDB681B0903F007035A1C7B68E0
:1034A0005B689A4247D00123FB7344E07B681B684A
:1034B000032B18D0032B25D8012B02D0022B09D0C7
:1034C00020E05F4B1B6803F00203002B1DD101239A
:1034D000FB731AE05A4B1B6803F48063002B16D170
:1034E0000123FB7313E0564B1B6803F40033002BDE
:1034F0000FD1534B1B6803F48023002B09D1012308
:10350000FB7306E00123FB7304E000BF02E000BF91
:1035100000E000BFFB7B002B0DD1494BDB6823F0A3
:1035200073027B6819687B685B68013B1B010B4376
:1035300043491343CB60FB7B002B7CD1404B1B6882
:103540003F4A23F080631360FEF76CFBB86009E02C
:10355000FEF768FB0246BB68D31A022B02D903238D
:10356000FB7305E0364B1B6803F00063002BEFD1C3
:10357000FB7B002B5FD13B68002B10D1304B1B69CC
:1035800023F0784323F4FE437A68926811027A6844
:10359000D268D2060A432A4913430B6127E03B68ED
:1035A000012B12D1264B1B6923F4C00323F4FE43E5
:1035B0007A68926811027A6812695208013A5205D3
:1035C0000A431F4913430B6111E01D4B1B6923F094
:1035D000C06323F4FE437A68926811027A685269E4
:1035E0005208013A52060A43154913430B61144B22
:1035F0001B68134A43F080631360FEF713FBB86047
:1036000009E0FEF70FFB0246BB68D31A022B02D972
:103610000323FB7305E00A4B1B6803F00063002BD8
:10362000EFD0FB7B002B06D1054B1A697B689B69A9
:10363000034913430B61FB7B18461037BD4680BD21
:103640000010024080B584B000AF78607B68002B2A
:1036500001D1012395E07B685B6A002B08D17B6870
:103660005B68B3F5827F09D07B680022DA6105E0F0
:103670007B6800221A617B6800225A617B68002205
:103680009A627B6893F85D30DBB2002B06D17B68D1
:10369000002283F85C207868FDF79AFE7B6802229E
:1036A00083F85D207B681B681A687B681B6822F0C2
:1036B00040021A607B68DB68B3F5E06F02D9002333
:1036C000FB6002E04FF48053FB607B68DB68B3F57E
:1036D000706F07D07B68DB68B3F5E06F02D07B6862
:1036E00000229A627B685B6803F482727B689B6845
:1036F00003F404431A437B681B6903F002031A4373
:103700007B685B6903F001031A437B689B6903F4E0
:1037100000731A437B68DB6903F038031A437B6844
:103720001B6A03F0800342EA03017B689B6A03F48F
:1037300000527B681B680A431A607B689B691B0CFC
:1037400003F004027B685B6A03F010031A437B6892
:103750005B6B03F008031A437B68DB6803F4706358
:1037600042EA0301FB6803F480527B681B680A434A
:103770005A607B6800221A667B68012283F85D200C
:10378000002318461037BD4680BD80B588B000AF15
:10379000F860B9603B601346FB80FEF743FAF861BE
:1037A000FB887B83FB6893F85D30DBB2012B01D093
:1037B00002235CE1BB68002B02D0FB88002B01D107
:1037C000012354E1FB6893F85C30012B01D1022303
:1037D0004DE1FB68012283F85C20FB68032283F83B
:1037E0005D20FB6800221A66FB68BA689A63FB6872
:1037F000FA889A87FB68FA88DA87FB6800221A64DD
:10380000FB680022A3F84420FB680022A3F84620AE
:10381000FB6800221A65FB680022DA64FB689B687B
:10382000B3F5004F0FD1FB681B681A68FB681B6873
:1038300022F040021A60FB681B681A68FB681B686C
:1038400042F480421A60FB681B681B6803F0400367
:10385000402B07D0FB681B681A68FB681B6842F0A6
:1038600040021A60FB68DB68B3F5E06F52D9FB6871
:103870005B68002B02D07B8B012B45D1FB689B6BD7
:103880001A88FB681B68DA60FB689B6B9A1CFB68F4
:103890009A63FB68DB8F9BB2013B9AB2FB68DA87C5
:1038A00032E0FB681B689B6803F00203022B12D115
:1038B000FB689B6B1A88FB681B68DA60FB689B6B74
:1038C0009A1CFB689A63FB68DB8F9BB2013B9AB240
:1038D000FB68DA8718E0FEF7A5F90246FB69D31A00
:1038E0003A689A4203D83B68B3F1FF3F02D13B6884
:1038F000002B09D1FB68012283F85D20FB680022C0
:1039000083F85C200323B2E0FB68DB8F9BB2002BC3
:10391000C7D183E0FB685B68002B02D07B8B012B57
:1039200077D1FB68DB8F9BB2012B12D9FB689B6BB5
:103930001A88FB681B68DA60FB689B6B9A1CFB6843
:103940009A63FB68DB8F9BB2023B9AB2FB68DA8713
:103950005FE0FB689A6BFB681B680C3312781A7087
:10396000FB689B6B5A1CFB689A63FB68DB8F9BB2FE
:10397000013B9AB2FB68DA874BE0FB681B689B68E7
:1039800003F00203022B2BD1FB68DB8F9BB2012BD0
:1039900012D9FB689B6B1A88FB681B68DA60FB68AE
:1039A0009B6B9A1CFB689A63FB68DB8F9BB2023BA4
:1039B0009AB2FB68DA872CE0FB689A6BFB681B689D
:1039C0000C3312781A70FB689B6B5A1CFB689A6365
:1039D000FB68DB8F9BB2013B9AB2FB68DA8718E089
:1039E000FEF720F90246FB69D31A3A689A4203D8D7
:1039F0003B68B3F1FF3F02D13B68002B09D1FB6864
:103A0000012283F85D20FB68002283F85C200323F9
:103A10002DE0FB68DB8F9BB2002BAED1FA693968D1
:103A2000F86800F065FB0346002B02D0FB682022FB
:103A30001A66FB689B68002B0AD100237B61FB6838
:103A40001B68DB687B61FB681B689B687B617B692B
:103A5000FB68012283F85D20FB68002283F85C206C
:103A6000FB681B6E002B01D0012300E000231846E9
:103A70002037BD4680BD80B58AB000AFF860B96020
:103A80007A607B8001237B62FEF7CCF83862FB68AA
:103A900093F85D30FB77FB685B68BB617B88FB82DA
:103AA0007B88BB82FB7F012B0CD0BB69B3F5827F87
:103AB00006D1FB689B68002B02D1FB7F042B01D051
:103AC0000223F3E1BB68002B05D07B68002B02D0FA
:103AD0007B88002B01D10123E8E1FB6893F85C307F
:103AE000012B01D10223E1E1FB68012283F85C2074
:103AF000FB6893F85D30DBB2042B03D0FB68052232
:103B000083F85D20FB6800221A66FB687A681A64F5
:103B1000FB687A88A3F84620FB687A88A3F84420DB
:103B2000FB68BA689A63FB687A88DA87FB687A88E8
:103B30009A87FB680022DA64FB6800221A65FB683A
:103B4000DB68B3F5E06F02D8BB8A012B08D9FB68AC
:103B50001B685A68FB681B6822F480525A6007E0B1
:103B6000FB681B685A68FB681B6842F480525A6005
:103B7000FB681B681B6803F04003402B07D0FB6801
:103B80001B681A68FB681B6842F040021A60FB68F9
:103B9000DB68B3F5E06F40F28380FB685B68002B65
:103BA00002D0FB8A012B6FD1FB689B6B1A88FB68E4
:103BB0001B68DA60FB689B6B9A1CFB689A63FB6866
:103BC000DB8F9BB2013B9AB2FB68DA875CE0FB6853
:103BD0001B689B6803F00203022B1BD1FB68DB8F81
:103BE0009BB2002B16D07B6A012B13D1FB689B6B19
:103BF0001A88FB681B68DA60FB689B6B9A1CFB6881
:103C00009A63FB68DB8F9BB2013B9AB2FB68DA8751
:103C100000237B62FB681B689B6803F00103012B98
:103C20001CD1FB68B3F846309BB2002B16D0FB6862
:103C30001B68DA68FB681B6C92B21A80FB681B6C0D
:103C40009A1CFB681A64FB68B3F846309BB2013BD0
:103C50009AB2FB68A3F8462001237B62FDF7E2FFDE
:103C600002463B6AD31A3A6B9A420DD83B6BB3F1CA
:103C7000FF3F09D0FB68012283F85D20FB6800222A
:103C800083F85C20032311E1FB68DB8F9BB2002BE0
:103C90009DD1FB68B3F846309BB2002B97D1E5E08D
:103CA000FB685B68002B03D0FB8A012B40F0D180BE
:103CB000FB68DB8F9BB2012B12D9FB689B6B1A88C8
:103CC000FB681B68DA60FB689B6B9A1CFB689A6355
:103CD000FB68DB8F9BB2023B9AB2FB68DA87B8E0E5
:103CE000FB689A6BFB681B680C3312781A70FB68D0
:103CF0009B6B5A1CFB689A63FB68DB8F9BB2013B92
:103D00009AB2FB68DA87A4E0FB681B689B6803F043
:103D10000203022B34D1FB68DB8F9BB2002B2FD028
:103D20007B6A012B2CD1FB68DB8F9BB2012B12D954
:103D3000FB689B6B1A88FB681B68DA60FB689B6BEF
:103D40009A1CFB689A63FB68DB8F9BB2023B9AB2BA
:103D5000FB68DA8712E0FB689A6BFB681B680C3320
:103D600012781A70FB689B6B5A1CFB689A63FB689D
:103D7000DB8F9BB2013B9AB2FB68DA8700237B6240
:103D8000FB681B689B6803F00103012B48D1FB68AB
:103D9000B3F846309BB2002B42D0FB68B3F84630F4
:103DA0009BB2012B23D9FB681B68DA68FB681B6C8C
:103DB00092B21A80FB681B6C9A1CFB681A64FB6841
:103DC000B3F846309BB2023B9AB2FB68A3F8462098
:103DD000FB68B3F846309BB2012B1FD8FB681B6809
:103DE0005A68FB681B6842F480525A6016E0FB6810
:103DF0001B6803F10C02FB681B6C1278D2B21A70BC
:103E0000FB681B6C5A1CFB681A64FB68B3F84630ED
:103E10009BB2013B9AB2FB68A3F8462001237B6268
:103E2000FDF700FF02463B6AD31A3A6B9A4203D869
:103E30003B6BB3F1FF3F02D13B6B002B09D1FB6819
:103E4000012283F85D20FB68002283F85C200323B5
:103E50002CE0FB68DB8F9BB2002B7FF455AFFB6837
:103E6000B3F846309BB2002B7FF44EAF3A6A396B01
:103E7000F86800F03DF90346002B08D0FB682022CB
:103E80001A66FB68002283F85C2001230EE0FB68C1
:103E9000012283F85D20FB68002283F85C20FB6828
:103EA0001B6E002B01D0012300E0002318462837A9
:103EB000BD4680BD80B588B000AFF860B9603B609A
:103EC0001346FB71FDF7AEFE0246BB6A9B1A3A68C9
:103ED0001344FB61FDF7A6FEB861394B1B685B011B
:103EE0001B0DFA6902FB03F37B6154E03B68B3F1FD
:103EF000FF3F50D0FDF796FE0246BB69D31AFA6920
:103F00009A4202D9FB69002B3DD1FB681B685A68B5
:103F1000FB681B6822F0E0025A60FB685B68B3F53F
:103F2000827F11D1FB689B68B3F5004F04D0FB681A
:103F30009B68B3F5806F07D1FB681B681A68FB6844
:103F40001B6822F040021A60FB689B6AB3F5005FB1
:103F50000FD1FB681B681A68FB681B6822F40052CB
:103F60001A60FB681B681A68FB681B6842F4005201
:103F70001A60FB68012283F85D20FB68002283F849
:103F80005C20032317E07B69002B01D10023FB6138
:103F90007B69013B7B61FB681B689A68BB681340C7
:103FA000BA689A420CBF01230023DBB21A46FB79A0
:103FB0009A429BD1002318462037BD4680BD00BFE2
:103FC0000400002080B58AB000AFF860B9607A6064
:103FD0003B600023FB75FDF725FE02463B6B9B1AF9
:103FE0003A6813447B62FDF71DFE3862FB681B686C
:103FF0000C33FB613D4B1A6813469B001344DA00F7
:10400000D31A1B0D7A6A02FB03F3BB6160E0BB6845
:10401000B3F5C06F07D17B68002B04D1FB691B7817
:10402000DBB2FB75FB7D3B68B3F1FF3F50D0FDF782
:10403000F9FD02463B6AD31A7A6A9A4202D97B6A30
:10404000002B3DD1FB681B685A68FB681B6822F097
:10405000E0025A60FB685B68B3F5827F11D1FB68B0
:104060009B68B3F5004F04D0FB689B68B3F5806F85
:1040700007D1FB681B681A68FB681B6822F04002C6
:104080001A60FB689B6AB3F5005F0FD1FB681B6881
:104090001A68FB681B6822F400521A60FB681B68F0
:1040A0001A68FB681B6842F400521A60FB68012220
:1040B00083F85D20FB68002283F85C20032310E076
:1040C000BB69002B01D100237B62BB69013BBB6153
:1040D000FB681B689A68BB6813407A689A4296D15D
:1040E000002318462837BD4680BD00BF04000020CD
:1040F00080B586B002AFF860B9607A607B680093E3
:10410000BB6800224FF4C051F868FFF75BFF03461D
:10411000002B07D0FB681B6E43F02002FB681A6679
:10412000032327E07B680093BB6800228021F868A6
:10413000FFF7C0FE0346002B07D0FB681B6E43F061
:104140002002FB681A66032314E07B680093BB68B7
:1041500000224FF4C061F868FFF734FF0346002BDC
:1041600007D0FB681B6E43F02002FB681A6603232E
:1041700000E0002318461037BD4680BD80B582B0F0
:1041800000AF78607B68002B01D1012349E07B6898
:1041900093F83D30DBB2002B06D17B68002283F818
:1041A0003C207868FDF7D8FA7B68022283F83D202E
:1041B0007B681A687B6804331946104600F0BAF928
:1041C0007B68012283F848207B68012283F83E2027
:1041D0007B68012283F83F207B68012283F840201E
:1041E0007B68012283F841207B68012283F842200A
:1041F0007B68012283F843207B68012283F84420F6
:104200007B68012283F845207B68012283F84620E1
:104210007B68012283F847207B68012283F83D20D8
:10422000002318460837BD4680BD000080B485B025
:1042300000AF78607B6893F83D30DBB2012B01D092
:1042400001233BE07B68022283F83D207B681B68EA
:10425000DA687B681B6842F00102DA607B681B68E1
:10426000194A934209D07B681B68B3F1804F04D090
:104270007B681B68154A934215D17B681B689A6856
:10428000134B1340FB60FB68062B15D0FB68B3F59E
:10429000803F11D07B681B681A687B681B6842F0FE
:1042A00001021A6008E07B681B681A687B681B685B
:1042B00042F001021A6000E000BF002318461437E4
:1042C000BD465DF8047B7047002C01400040014072
:1042D0000700010080B584B000AF78607B681B6880
:1042E000DB68FB607B681B681B69BB60BB6803F015
:1042F0000203002B20D0FB6803F00203002B1BD02D
:104300007B681B686FF002021A617B6801221A77D2
:104310007B681B689B6903F00303002B03D078685C
:1043200000F0E9F805E0786800F0DBF8786800F064
:10433000ECF87B6800221A77BB6803F00403002BBB
:1043400020D0FB6803F00403002B1BD07B681B68A4
:104350006FF004021A617B6802221A777B681B687F
:104360009B6903F44073002B03D0786800F0C3F816
:1043700005E0786800F0B5F8786800F0C6F87B686A
:1043800000221A77BB6803F00803002B20D0FB68DB
:1043900003F00803002B1BD07B681B686FF008023A
:1043A0001A617B6804221A777B681B68DB6903F05B
:1043B0000303002B03D0786800F09DF805E07868CF
:1043C00000F08FF8786800F0A0F87B6800221A7778
:1043D000BB6803F01003002B20D0FB6803F0100330
:1043E000002B1BD07B681B686FF010021A617B6882
:1043F00008221A777B681B68DB6903F44073002B83
:1044000003D0786800F077F805E0786800F069F884
:10441000786800F07AF87B6800221A77BB6803F0AE
:104420000103002B0CD0FB6803F00103002B07D025
:104430007B681B686FF001021A617868FCF750FE18
:10444000BB6803F08003002B04D1BB6803F4005366
:10445000002B0CD0FB6803F08003002B07D07B6897
:104460001B686FF402521A61786800F043F9BB6868
:1044700003F48073002B0CD0FB6803F08003002B47
:1044800007D07B681B686FF480721A61786800F04F
:104490003BF9BB6803F04003002B0CD0FB6803F032
:1044A0004003002B07D07B681B686FF040021A6145
:1044B000786800F034F8BB6803F02003002B0CD0C0
:1044C000FB6803F02003002B07D07B681B686FF0AC
:1044D00020021A61786800F003F900BF1037BD466A
:1044E00080BD80B483B000AF786000BF0C37BD469C
:1044F0005DF8047B704780B483B000AF786000BF84
:104500000C37BD465DF8047B704780B483B000AFC4
:10451000786000BF0C37BD465DF8047B704780B4FF
:1045200083B000AF786000BF0C37BD465DF8047BF8
:104530007047000080B485B000AF786039607B6858
:104540001B68FB607B68304A934203D07B68B3F101
:10455000804F08D1FB6823F07003FB603B685B6809
:10456000FA681343FB607B68274A93420BD07B6851
:10457000B3F1804F07D07B68244A934203D07B6815
:10458000234A934208D1FB6823F44073FB603B68E5
:10459000DB68FA681343FB60FB6823F080023B682A
:1045A0005B691343FB607B68FA681A603B689A6832
:1045B0007B68DA623B681A687B689A627B68124A99
:1045C000934207D07B68114A934203D07B68104A1C
:1045D000934203D13B681A697B681A637B680122A6
:1045E0005A617B681B6903F00103012B05D17B68CD
:1045F0001B6923F001027B681A6100BF1437BD46B6
:104600005DF8047B704700BF002C01400040014072
:104610000044014080B485B000AF786039607B68A9
:1046200093F83C30012B01D102234FE07B6801223B
:1046300083F83C207B68022283F83D207B681B685E
:104640005B68FB607B681B689B68BB607B681B6862
:10465000214A934208D1FB6823F47003FB603B6856
:104660005B68FA681343FB60FB6823F07003FB6030
:104670003B681B68FA681343FB607B681B68FA6839
:104680005A607B681B68144A934209D07B681B6898
:10469000B3F1804F04D07B681B68104A93420CD161
:1046A000BB6823F08003BB603B689B68BA68134318
:1046B000BB607B681B68BA689A607B68012283F8DC
:1046C0003D207B68002283F83C20002318461437E5
:1046D000BD465DF8047B7047002C0140004001405E
:1046E00080B483B000AF786000BF0C37BD465DF882
:1046F000047B704780B483B000AF786000BF0C3794
:10470000BD465DF8047B704780B483B000AF78602D
:1047100000BF0C37BD465DF8047B704780B582B0A2
:1047200000AF78607B68002B01D1012340E07B68FB
:10473000DB6F002B06D17B68002283F87820786835
:10474000FDF790F87B682422DA677B681B681A689B
:104750007B681B6822F001021A607B685B6A002B91
:1047600002D0786800F0C6FE786800F069FC034665
:10477000012B01D101231BE07B681B685A687B6811
:104780001B6822F490425A607B681B689A687B68B9
:104790001B6822F02A029A607B681B681A687B6893
:1047A0001B6842F001021A60786800F045FF03467A
:1047B00018460837BD4680BD80B58AB002AFF860A4
:1047C000B9603B601346FB80FB68D3F88030202B38
:1047D00040F0B680BB68002B02D0FB88002B01D1D3
:1047E0000123AEE0FB680022C3F88420FB6822228C
:1047F000C3F88020FB6800221A66FDF713FA78617F
:10480000FB68FA88A3F85820FB68FA88A3F85A20B6
:10481000FB689B68B3F5805F0ED1FB681B69002BBA
:1048200005D1FB6840F2FF12A3F85C202DE0FB6885
:10483000FF22A3F85C2028E0FB689B68002B0DD1C9
:10484000FB681B69002B04D1FB68FF22A3F85C20E6
:104850001BE0FB687F22A3F85C2016E0FB689B68E6
:10486000B3F1805F0DD1FB681B69002B04D1FB689D
:104870007F22A3F85C2008E0FB683F22A3F85C20BD
:1048800003E0FB680022A3F85C20FB68B3F85C300F
:104890007B82FB689B68B3F5805F08D1FB681B696E
:1048A000002B04D10023FB61BB68BB6103E0BB6844
:1048B000FB610023BB6137E03B6800937B6900220A
:1048C0002021F86800F060FF0346002B05D0FB684C
:1048D0002022C3F88020032333E0FB69002B0CD196
:1048E000FB681B689B8C9AB27B8A13409AB2BB69A7
:1048F0001A80BB690233BB610DE0FB681B689B8CAF
:104900009BB2DAB27B8ADBB21340DAB2FB691A706F
:10491000FB690133FB61FB68B3F85A309BB2013B82
:104920009AB2FB68A3F85A20FB68B3F85A309BB2DE
:10493000002BC1D1FB682022C3F88020002300E0B7
:10494000022318462037BD4680BD000080B48BB0DE
:1049500000AFF860B9601346FB80FB68DB6F202B6B
:1049600047D1BB68002B02D0FB88002B01D101236B
:1049700040E0FB68BA68DA64FB68FA88A3F8502064
:10498000FB68FA88A3F85220FB680022DA66FB680D
:104990000022C3F88420FB682122DA67FB689B6849
:1049A000B3F5805F07D1FB681B69002B03D1FB685F
:1049B000134ADA6602E0FB68124ADA66FB681B6893
:1049C0007B617B6953E8003F3B613B6943F08003B7
:1049D0007B62FB681B681A467B6A3B62FA61F96975
:1049E0003A6A41E80023BB61BB69002BE6D1002392
:1049F00000E0022318462C37BD465DF8047B704763
:104A00000D5A00085759000880B5BAB000AF786059
:104A10007B681B68DB69C7F8E4307B681B681B6830
:104A2000C7F8E0307B681B689B68C7F8DC30D7F8B4
:104A3000E42040F60F031340C7F8D830D7F8D83039
:104A4000002B15D1D7F8E43003F02003002B0FD052
:104A5000D7F8E03003F02003002B09D07B689B6E71
:104A6000002B00F0CA827B689B6E78689847C4E28E
:104A7000D7F8D830002B00F01781D7F8DC3003F0DE
:104A80000103002B06D1D7F8E020854B1340002B03
:104A900000F00A81D7F8E43003F00103002B11D0B5
:104AA000D7F8E03003F48073002B0BD07B681B68D1
:104AB00001221A627B68D3F8843043F001027B68DC
:104AC000C3F88420D7F8E43003F00203002B11D0A0
:104AD000D7F8DC3003F00103002B0BD07B681B6898
:104AE00002221A627B68D3F8843043F004027B68A8
:104AF000C3F88420D7F8E43003F00403002B11D06E
:104B0000D7F8DC3003F00103002B0BD07B681B6867
:104B100004221A627B68D3F8843043F002027B6877
:104B2000C3F88420D7F8E43003F00803002B17D033
:104B3000D7F8E03003F02003002B05D1D7F8DC30A4
:104B400003F00103002B0BD07B681B6808221A625C
:104B50007B68D3F8843043F008027B68C3F8842074
:104B6000D7F8E43003F40063002B12D0D7F8E0301C
:104B700003F08063002B0CD07B681B684FF400624D
:104B80001A627B68D3F8843043F020027B68C3F854
:104B900084207B68D3F88430002B00F03082D7F873
:104BA000E43003F02003002B0DD0D7F8E03003F001
:104BB0002003002B07D07B689B6E002B03D07B6803
:104BC0009B6E786898477B68D3F88430C7F8D430F8
:104BD0007B681B689B6803F04003402B05D0D7F827
:104BE000D43003F02803002B4FD0786800F039FE52
:104BF0007B681B689B6803F04003402B41D17B68B6
:104C00001B680833C7F89C30D7F89C3053E8003F46
:104C1000C7F89830D7F8983023F04003C7F8D03061
:104C20007B681B680833D7F8D020C7F8A820C7F8DE
:104C3000A430D7F8A410D7F8A82041E80023C7F87B
:104C4000A030D7F8A030002BD9D17B685B6F002B48
:104C500013D07B685B6F134A9A637B685B6F18465F
:104C6000FDF75FF90346002B17D07B685B6F9B6BEA
:104C70007A68526F104698470FE0786800F0CAF9DA
:104C80000BE0786800F0C6F907E0786800F0C2F938
:104C90007B680022C3F88420B1E100BFAFE100BF10
:104CA000200100042B5900087B681B6E012B40F08B
:104CB0006A81D7F8E43003F01003002B00F0638121
:104CC000D7F8E03003F01003002B00F05C817B6824
:104CD0001B6810221A627B681B689B6803F0400304
:104CE000402B40F0D4807B685B6F1B685B68A7F843
:104CF000BE30B7F8BE30002B00F0AD807B68B3F853
:104D00005830B7F8BE209A4280F0A5807B68B7F88B
:104D1000BE20A3F85A207B685B6F1B681B6803F0FA
:104D20002003002B40F086807B681B68C7F8883022
:104D3000D7F8883053E8003FC7F88430D7F884307C
:104D400023F48073C7F8B8307B681B681A46D7F81D
:104D5000B830C7F89430C7F89020D7F89010D7F83B
:104D6000942041E80023C7F88C30D7F88C30002B12
:104D7000DAD17B681B6808337B677B6F53E8003FA1
:104D80003B673B6F23F00103C7F8B4307B681B68B7
:104D90000833D7F8B420C7F88020FB67F96FD7F83D
:104DA000802041E80023BB67BB6F002BE1D17B680B
:104DB0001B6808333B663B6E53E8003FFB65FB6DA9
:104DC00023F04003C7F8B0307B681B680833D7F87E
:104DD000B020FA66BB66B96EFA6E41E800237B66C6
:104DE0007B6E002BE3D17B682022C3F880207B6898
:104DF00000221A667B681B68FB64FB6C53E8003F6B
:104E0000BB64BB6C23F01003C7F8AC307B681B6835
:104E10001A46D7F8AC30BB657A65796DBA6D41E852
:104E200000233B653B6D002BE4D17B685B6F18462C
:104E3000FDF739F87B6802225A667B68B3F8582080
:104E40007B68B3F85A309BB2D31A9BB21946786884
:104E500000F0EAF8D5E07B68B3F85830B7F8BE2028
:104E60009A4240F0CE807B685B6F1B681B6803F042
:104E70002003202B40F0C5807B6802225A667B68A5
:104E8000B3F858301946786800F0CEF8B9E07B687E
:104E9000B3F858207B68B3F85A309BB2D31AA7F8FE
:104EA000CE307B68B3F85A309BB2002B00F0AB8059
:104EB000B7F8CE30002B00F0A6807B681B68BB6380
:104EC000BB6B53E8003F7B637B6B23F49073C7F8A5
:104ED000C8307B681B681A46D7F8C8307B643A64D0
:104EE000396C7A6C41E80023FB63FB6B002BE4D147
:104EF0007B681B6808337B627B6A53E8003F3B6238
:104F00003B6A23F00103C7F8C4307B681B68083391
:104F1000D7F8C4203A63FB62F96A3A6B41E8002390
:104F2000BB62BB6A002BE3D17B682022C3F88020E0
:104F30007B6800221A667B6800229A667B681B6881
:104F40003B613B6953E8003FFB60FB6823F01003C3
:104F5000C7F8C0307B681B681A46D7F8C030FB61C1
:104F6000BA61B969FA6941E800237B617B69002B6A
:104F7000E4D17B6802225A66B7F8CE3019467868C9
:104F800000F052F83FE0D7F8E43003F48013002B30
:104F90000ED0D7F8DC3003F48003002B08D07B68F8
:104FA0001B684FF480121A62786800F0B9FD2DE09A
:104FB000D7F8E43003F08003002B0ED0D7F8E030B0
:104FC00003F08003002B08D07B68DB6E002B1CD025
:104FD0007B68DB6E7868984717E0D7F8E43003F019
:104FE0004003002B12D0D7F8E03003F04003002B31
:104FF0000CD0786800F06AFD08E000BF06E000BF52
:1050000004E000BF02E000BF00E000BFE837BD469B
:1050100080BD00BF80B483B000AF786000BF0C37A4
:10502000BD465DF8047B704780B483B000AF786004
:105030000B467B8000BF0C37BD465DF8047B704794
:105040002DE9B04F8AB000AFF860002387F8223016
:10505000FB689A68FB681B691A43FB685B691A4323
:10506000FB68DB6913437B62FB681B681A689E4B15
:105070001340FA681268796A0B431360FB681B6877
:105080005B6823F44051FB68DA68FB681B680A43DD
:105090005A60FB689B697B62FB681B68934A93427A
:1050A00004D0FB681B6A7A6A13437B62FB681B6847
:1050B0009B6823F43061FB681B687A6A0A439A6034
:1050C000FB681B688A4A934226D18A4BD3F8883002
:1050D00003F00303032B1BD801A252F823F000BFF7
:1050E000F150000801510008F9500008095100086A
:1050F000012387F82330ABE0022387F82330A7E0B1
:10510000042387F82330A3E0082387F823309FE0A7
:10511000102387F823309BE0FB681B68764A934294
:1051200038D1744BD3F8883003F00C030C2B2DD8F6
:1051300001A252F823F000BF6D5100088D51000804
:105140008D5100088D5100087D5100088D510008D7
:105150008D5100088D510008755100088D510008CF
:105160008D5100088D51000885510008002387F8F3
:1051700023306DE0022387F8233069E0042387F8A9
:10518000233065E0082387F8233061E0102387F897
:1051900023305DE0FB681B68584A934225D1554B8C
:1051A000D3F8883003F03003302B16D0302B18D8CA
:1051B000202B0AD0202B14D8002B02D0102B08D083
:1051C0000FE0002387F8233042E0022387F82330E2
:1051D0003EE0042387F823303AE0082387F82330A1
:1051E00036E0102387F8233032E0FB681B683F4A23
:1051F00093422AD13F4BD3F8883003F44063B3F590
:10520000406F1AD0B3F5406F1BD8B3F5006F0CD0C8
:10521000B3F5006F15D8002B03D0B3F5806F08D01D
:105220000FE0002387F8233012E0022387F82330B1
:105230000EE0042387F823300AE0082387F82330A0
:1052400006E0102387F8233002E0102387F823308C
:10525000FB681B68254A934240F08A8097F8233008
:10526000082B24D801A252F823F000BF9152000865
:10527000AF52000899520008AF5200089F52000830
:10528000AF520008AF520008AF520008A752000802
:10529000FDF742FEF86110E0194BFB610DE0FDF7F0
:1052A000A3FDF86109E04FF40043FB6105E0002332
:1052B000FB61012387F8223000BFFB69002B00F05F
:1052C0000981FB685A6813465B001344FA699A42E5
:1052D00005D3FB685B681B03FA699A4212D9012364
:1052E00087F82230F6E000BFF369FFEF008000404E
:1052F00000380140001002400044004000480040D7
:105300000024F400FB6900221C4615464FF0000201
:105310004FF000032B0243EA14632202F968496844
:10532000490800208846814612EB080A43EB090B26
:10533000FB685B6800223B607A60D7E90023504637
:105340005946FBF7A1FC02460B461346BB61BB69FD
:10535000B3F5407F08D3BB69B3F5801F04D2FB6867
:105360001B68BA69DA60B5E0012387F82230B1E042
:10537000FB68DB69B3F5004F5DD197F82330082B4C
:1053800027D801A252F823F0AD530008B553000806
:10539000BD530008D3530008C3530008D35300087B
:1053A000D3530008D3530008CB530008FDF7B4FDD6
:1053B000F86114E0FDF7C6FDF86110E04C4BFB61AD
:1053C0000DE0FDF711FDF86109E04FF40043FB61CA
:1053D00005E00023FB61012387F8223000BFFB6951
:1053E000002B77D0FB695A00FB685B685B081A44A6
:1053F000FB685B68B2FBF3F3BB61BB690F2B16D98B
:10540000BB69B3F5803F12D2BB699BB223F00F0397
:10541000FB82BB695B089BB203F007039AB2FB8A6D
:105420001343FB82FB681B68FA8ADA6052E00123AF
:1054300087F822304EE097F82330082B27D801A2B6
:1054400052F823F069540008715400087954000898
:105450008F5400087F5400088F5400088F540008B0
:105460008F54000887540008FDF756FDF86114E0DA
:10547000FDF768FDF86110E01D4BFB610DE0FDF7E5
:10548000B3FCF86109E04FF40043FB6105E0002341
:10549000FB61012387F8223000BFFB69002B19D084
:1054A000FB685B685A08FB691A44FB685B68B2FBDF
:1054B000F3F3BB61BB690F2B09D9BB69B3F5803F1F
:1054C00005D2BB699AB2FB681B68DA6002E001236F
:1054D00087F82230FB6800229A66FB680022DA66B1
:1054E00097F8223018462837BD46BDE8B08F00BF78
:1054F0000024F40080B483B000AF78607B685B6AFE
:1055000003F00803002B0AD07B681B685B6823F458
:1055100000417B685A6B7B681B680A435A607B6852
:105520005B6A03F00103002B0AD07B681B685B6891
:1055300023F400317B689A6A7B681B680A435A60CF
:105540007B685B6A03F00203002B0AD07B681B6850
:105550005B6823F480317B68DA6A7B681B680A43E6
:105560005A607B685B6A03F00403002B0AD07B68F7
:105570001B685B6823F480217B681A6B7B681B685F
:105580000A435A607B685B6A03F01003002B0AD061
:105590007B681B689B6823F480517B689A6B7B68EF
:1055A0001B680A439A607B685B6A03F02003002B48
:1055B0000AD07B681B689B6823F400517B68DA6B18
:1055C0007B681B680A439A607B685B6A03F0400350
:1055D000002B1AD07B681B685B6823F480117B6802
:1055E0001A6C7B681B680A435A607B681B6CB3F5B6
:1055F000801F0AD17B681B685B6823F4C0017B684D
:105600005A6C7B681B680A435A607B685B6A03F0CC
:105610008003002B0AD07B681B685B6823F40021A1
:105620007B689A6C7B681B680A435A6000BF0C3722
:10563000BD465DF8047B704780B598B002AF7860D6
:105640007B680022C3F88420FCF7ECFA78657B685D
:105650001B681B6803F00803082B2ED16FF07E43F4
:1056600000937B6D00224FF40011786800F08CF8F5
:105670000346002B21D07B681B68BB63BB6B53E8E0
:10568000003F7B637B6B23F080033B657B681B687B
:105690001A463B6D7B643A64396C7A6C41E80023AE
:1056A000FB63FB6B002BE6D17B682022DA677B680B
:1056B000002283F87820032362E07B681B681B6864
:1056C00003F00403042B49D16FF07E4300937B6DFC
:1056D00000224FF48001786800F056F80346002B52
:1056E0003CD07B681B687B627B6A53E8003F3B626F
:1056F0003B6A23F49073FB647B681B681A46FB6C5F
:105700003B63FA62F96A3A6B41E80023BB62BB6A09
:10571000002BE6D17B681B6808333B613B6953E88B
:10572000003FFB60FB6823F00103BB647B681B68E0
:105730000833BA6CFA61BB61B969FA6941E80023C0
:105740007B617B69002BE5D17B682022C3F8802038
:105750007B68002283F87820032311E07B682022F5
:10576000DA677B682022C3F880207B6800221A66F3
:105770007B6800225A667B68002283F87820002329
:1057800018465837BD4680BD80B584B000AFF8607C
:10579000B9603B601346FB714FE0BB69B3F1FF3F5B
:1057A0004BD0FCF73FFA02463B68D31ABA699A42DB
:1057B00002D3BB69002B01D103234EE0FB681B68B9
:1057C0001B6803F00403002B37D0BB68802B34D058
:1057D000BB68402B31D0FB681B68DB6903F0080312
:1057E000082B10D1FB681B6808221A62F86800F0C9
:1057F00038F8FB680822C3F88420FB68002283F88D
:105800007820012329E0FB681B68DB6903F400634F
:10581000B3F5006F11D1FB681B684FF400621A6288
:10582000F86800F01EF8FB682022C3F88420FB68AB
:10583000002283F8782003230FE0FB681B68DA69F5
:10584000BB681340BA689A420CBF01230023DBB245
:105850001A46FB799A42A0D0002318461037BD465D
:1058600080BD80B495B000AF78607B681B687B63B7
:105870007B6B53E8003F3B633B6B23F49073FB640B
:105880007B681B681A46FB6C3B64FA63F96B3A6CE5
:1058900041E80023BB63BB6B002BE6D17B681B6830
:1058A00008333B623B6A53E8003FFB61FB6923F02E
:1058B0000103BB647B681B680833BA6CFA62BB6285
:1058C000B96AFA6A41E800237B627B6A002BE5D162
:1058D0007B681B6E012B18D17B681B68FB60FB6823
:1058E00053E8003FBB60BB6823F010037B647B6818
:1058F0001B681A467B6CBB617A617969BA6941E8B9
:1059000000233B613B69002BE6D17B682022C3F872
:1059100080207B6800221A667B6800229A6600BF9E
:105920005437BD465DF8047B704780B584B000AF46
:1059300078607B689B6AFB60FB680022A3F85A20B2
:10594000FB680022A3F85220F868FFF763FB00BF52
:105950001037BD4680BD80B48FB000AF78607B68E3
:10596000DB6F212B4CD17B68B3F852309BB2002BFC
:1059700032D17B681B683B623B6A53E8003FFB61A6
:10598000FB6923F080037B637B681B681A467B6B93
:10599000FB62BA62B96AFA6A41E800237B627B6AF9
:1059A000002BE6D17B681B68FB60FB6853E8003F77
:1059B000BB60BB6843F040033B637B681B681A46CF
:1059C0003B6BBB617A617969BA6941E800233B614D
:1059D0003B69002BE6D113E07B68DB6C1A787B68AF
:1059E0001B681A857B68DB6C5A1C7B68DA647B68F1
:1059F000B3F852309BB2013B9AB27B68A3F85220B5
:105A000000BF3C37BD465DF8047B704780B491B061
:105A100000AF78607B68DB6F212B51D17B68B3F8D6
:105A200052309BB2002B32D17B681B687B627B6A51
:105A300053E8003F3B623B6A23F08003BB637B6813
:105A40001B681A46BB6B3B63FA62F96A3A6B41E822
:105A50000023BB62BB6A002BE6D17B681B683B61FD
:105A60003B6953E8003FFB60FB6843F040037B6306
:105A70007B681B681A467B6BFB61BA61B969FA697E
:105A800041E800237B617B69002BE6D118E07B684D
:105A9000DB6CFB63FB6B1A887B681B68C2F3080234
:105AA00092B21A857B68DB6C9A1C7B68DA647B682F
:105AB000B3F852309BB2013B9AB27B68A3F85220F4
:105AC00000BF4437BD465DF8047B704780B588B0A1
:105AD00000AF78607B681B68FB60FB6853E8003FA1
